{
  "contractName": "Color",
  "abi": [
    {
      "inputs": [],
      "stateMutability": "nonpayable",
      "type": "constructor"
    },
    {
      "anonymous": false,
      "inputs": [
        {
          "indexed": true,
          "internalType": "address",
          "name": "owner",
          "type": "address"
        },
        {
          "indexed": true,
          "internalType": "address",
          "name": "approved",
          "type": "address"
        },
        {
          "indexed": true,
          "internalType": "uint256",
          "name": "tokenId",
          "type": "uint256"
        }
      ],
      "name": "Approval",
      "type": "event"
    },
    {
      "anonymous": false,
      "inputs": [
        {
          "indexed": true,
          "internalType": "address",
          "name": "owner",
          "type": "address"
        },
        {
          "indexed": true,
          "internalType": "address",
          "name": "operator",
          "type": "address"
        },
        {
          "indexed": false,
          "internalType": "bool",
          "name": "approved",
          "type": "bool"
        }
      ],
      "name": "ApprovalForAll",
      "type": "event"
    },
    {
      "anonymous": false,
      "inputs": [
        {
          "indexed": true,
          "internalType": "address",
          "name": "from",
          "type": "address"
        },
        {
          "indexed": true,
          "internalType": "address",
          "name": "to",
          "type": "address"
        },
        {
          "indexed": true,
          "internalType": "uint256",
          "name": "tokenId",
          "type": "uint256"
        }
      ],
      "name": "Transfer",
      "type": "event"
    },
    {
      "inputs": [
        {
          "internalType": "address",
          "name": "to",
          "type": "address"
        },
        {
          "internalType": "uint256",
          "name": "tokenId",
          "type": "uint256"
        }
      ],
      "name": "approve",
      "outputs": [],
      "stateMutability": "nonpayable",
      "type": "function"
    },
    {
      "inputs": [
        {
          "internalType": "address",
          "name": "owner",
          "type": "address"
        }
      ],
      "name": "balanceOf",
      "outputs": [
        {
          "internalType": "uint256",
          "name": "",
          "type": "uint256"
        }
      ],
      "stateMutability": "view",
      "type": "function",
      "constant": true
    },
    {
      "inputs": [
        {
          "internalType": "uint256",
          "name": "",
          "type": "uint256"
        }
      ],
      "name": "colors",
      "outputs": [
        {
          "internalType": "string",
          "name": "",
          "type": "string"
        }
      ],
      "stateMutability": "view",
      "type": "function",
      "constant": true
    },
    {
      "inputs": [
        {
          "internalType": "uint256",
          "name": "tokenId",
          "type": "uint256"
        }
      ],
      "name": "getApproved",
      "outputs": [
        {
          "internalType": "address",
          "name": "",
          "type": "address"
        }
      ],
      "stateMutability": "view",
      "type": "function",
      "constant": true
    },
    {
      "inputs": [
        {
          "internalType": "address",
          "name": "owner",
          "type": "address"
        },
        {
          "internalType": "address",
          "name": "operator",
          "type": "address"
        }
      ],
      "name": "isApprovedForAll",
      "outputs": [
        {
          "internalType": "bool",
          "name": "",
          "type": "bool"
        }
      ],
      "stateMutability": "view",
      "type": "function",
      "constant": true
    },
    {
      "inputs": [],
      "name": "name",
      "outputs": [
        {
          "internalType": "string",
          "name": "",
          "type": "string"
        }
      ],
      "stateMutability": "view",
      "type": "function",
      "constant": true
    },
    {
      "inputs": [
        {
          "internalType": "uint256",
          "name": "tokenId",
          "type": "uint256"
        }
      ],
      "name": "ownerOf",
      "outputs": [
        {
          "internalType": "address",
          "name": "",
          "type": "address"
        }
      ],
      "stateMutability": "view",
      "type": "function",
      "constant": true
    },
    {
      "inputs": [
        {
          "internalType": "address",
          "name": "from",
          "type": "address"
        },
        {
          "internalType": "address",
          "name": "to",
          "type": "address"
        },
        {
          "internalType": "uint256",
          "name": "tokenId",
          "type": "uint256"
        }
      ],
      "name": "safeTransferFrom",
      "outputs": [],
      "stateMutability": "nonpayable",
      "type": "function"
    },
    {
      "inputs": [
        {
          "internalType": "address",
          "name": "from",
          "type": "address"
        },
        {
          "internalType": "address",
          "name": "to",
          "type": "address"
        },
        {
          "internalType": "uint256",
          "name": "tokenId",
          "type": "uint256"
        },
        {
          "internalType": "bytes",
          "name": "_data",
          "type": "bytes"
        }
      ],
      "name": "safeTransferFrom",
      "outputs": [],
      "stateMutability": "nonpayable",
      "type": "function"
    },
    {
      "inputs": [
        {
          "internalType": "address",
          "name": "operator",
          "type": "address"
        },
        {
          "internalType": "bool",
          "name": "approved",
          "type": "bool"
        }
      ],
      "name": "setApprovalForAll",
      "outputs": [],
      "stateMutability": "nonpayable",
      "type": "function"
    },
    {
      "inputs": [],
      "name": "symbol",
      "outputs": [
        {
          "internalType": "string",
          "name": "",
          "type": "string"
        }
      ],
      "stateMutability": "view",
      "type": "function",
      "constant": true
    },
    {
      "inputs": [
        {
          "internalType": "uint256",
          "name": "index",
          "type": "uint256"
        }
      ],
      "name": "tokenByIndex",
      "outputs": [
        {
          "internalType": "uint256",
          "name": "",
          "type": "uint256"
        }
      ],
      "stateMutability": "view",
      "type": "function",
      "constant": true
    },
    {
      "inputs": [
        {
          "internalType": "address",
          "name": "owner",
          "type": "address"
        },
        {
          "internalType": "uint256",
          "name": "index",
          "type": "uint256"
        }
      ],
      "name": "tokenOfOwnerByIndex",
      "outputs": [
        {
          "internalType": "uint256",
          "name": "",
          "type": "uint256"
        }
      ],
      "stateMutability": "view",
      "type": "function",
      "constant": true
    },
    {
      "inputs": [
        {
          "internalType": "uint256",
          "name": "tokenId",
          "type": "uint256"
        }
      ],
      "name": "tokenURI",
      "outputs": [
        {
          "internalType": "string",
          "name": "",
          "type": "string"
        }
      ],
      "stateMutability": "view",
      "type": "function",
      "constant": true
    },
    {
      "inputs": [],
      "name": "totalSupply",
      "outputs": [
        {
          "internalType": "uint256",
          "name": "",
          "type": "uint256"
        }
      ],
      "stateMutability": "view",
      "type": "function",
      "constant": true
    },
    {
      "inputs": [
        {
          "internalType": "address",
          "name": "from",
          "type": "address"
        },
        {
          "internalType": "address",
          "name": "to",
          "type": "address"
        },
        {
          "internalType": "uint256",
          "name": "tokenId",
          "type": "uint256"
        }
      ],
      "name": "transferFrom",
      "outputs": [],
      "stateMutability": "nonpayable",
      "type": "function"
    },
    {
      "inputs": [],
      "name": "getColors",
      "outputs": [
        {
          "internalType": "string[]",
          "name": "",
          "type": "string[]"
        }
      ],
      "stateMutability": "view",
      "type": "function",
      "constant": true
    },
    {
      "inputs": [
        {
          "internalType": "bytes4",
          "name": "interfaceId",
          "type": "bytes4"
        }
      ],
      "name": "supportsInterface",
      "outputs": [
        {
          "internalType": "bool",
          "name": "",
          "type": "bool"
        }
      ],
      "stateMutability": "view",
      "type": "function",
      "constant": true
    },
    {
      "inputs": [
        {
          "internalType": "string",
          "name": "_color",
          "type": "string"
        }
      ],
      "name": "mint",
      "outputs": [],
      "stateMutability": "nonpayable",
      "type": "function"
    }
  ],
  "bytecode": "0x60806040523480156200001157600080fd5b506040518060400160405280600581526020017f436f6c6f720000000000000000000000000000000000000000000000000000008152506040518060400160405280600381526020017f434c520000000000000000000000000000000000000000000000000000000000815250816000908051906020019062000096929190620000b8565b508060019080519060200190620000af929190620000b8565b505050620001cd565b828054620000c69062000197565b90600052602060002090601f016020900481019282620000ea576000855562000136565b82601f106200010557805160ff191683800117855562000136565b8280016001018555821562000136579182015b828111156200013557825182559160200191906001019062000118565b5b50905062000145919062000149565b5090565b5b80821115620001645760008160009055506001016200014a565b5090565b7f4e487b7100000000000000000000000000000000000000000000000000000000600052602260045260246000fd5b60006002820490506001821680620001b057607f821691505b60208210811415620001c757620001c662000168565b5b50919050565b61351980620001dd6000396000f3fe608060405234801561001057600080fd5b50600436106101215760003560e01c80636352211e116100ad578063b88d4fde11610071578063b88d4fde1461032e578063bd11f69d1461034a578063c87b56dd1461037a578063d85d3d27146103aa578063e985e9c5146103c657610121565b80636352211e1461027657806370a08231146102a657806387c79d1d146102d657806395d89b41146102f4578063a22cb4651461031257610121565b806318160ddd116100f457806318160ddd146101c057806323b872dd146101de5780632f745c59146101fa57806342842e0e1461022a5780634f6ccce71461024657610121565b806301ffc9a71461012657806306fdde0314610156578063081812fc14610174578063095ea7b3146101a4575b600080fd5b610140600480360381019061013b91906120ae565b6103f6565b60405161014d91906120f6565b60405180910390f35b61015e610408565b60405161016b91906121aa565b60405180910390f35b61018e60048036038101906101899190612202565b61049a565b60405161019b9190612270565b60405180910390f35b6101be60048036038101906101b991906122b7565b61051f565b005b6101c8610637565b6040516101d59190612306565b60405180910390f35b6101f860048036038101906101f39190612321565b610644565b005b610214600480360381019061020f91906122b7565b6106a4565b6040516102219190612306565b60405180910390f35b610244600480360381019061023f9190612321565b610749565b005b610260600480360381019061025b9190612202565b610769565b60405161026d9190612306565b60405180910390f35b610290600480360381019061028b9190612202565b6107da565b60405161029d9190612270565b60405180910390f35b6102c060048036038101906102bb9190612374565b61088c565b6040516102cd9190612306565b60405180910390f35b6102de610944565b6040516102eb91906124ad565b60405180910390f35b6102fc610a1d565b60405161030991906121aa565b60405180910390f35b61032c600480360381019061032791906124fb565b610aaf565b005b61034860048036038101906103439190612670565b610c30565b005b610364600480360381019061035f9190612202565b610c92565b60405161037191906121aa565b60405180910390f35b610394600480360381019061038f9190612202565b610d3e565b6040516103a191906121aa565b60405180910390f35b6103c460048036038101906103bf9190612794565b610de5565b005b6103e060048036038101906103db91906127dd565b610eea565b6040516103ed91906120f6565b60405180910390f35b600061040182610f7e565b9050919050565b6060600080546104179061284c565b80601f01602080910402602001604051908101604052809291908181526020018280546104439061284c565b80156104905780601f1061046557610100808354040283529160200191610490565b820191906000526020600020905b81548152906001019060200180831161047357829003601f168201915b5050505050905090565b60006104a582610ff8565b6104e4576040517f08c379a00000000000000000000000000000000000000000000000000000000081526004016104db906128f0565b60405180910390fd5b6004600083815260200190815260200160002060009054906101000a900473ffffffffffffffffffffffffffffffffffffffff169050919050565b600061052a826107da565b90508073ffffffffffffffffffffffffffffffffffffffff168373ffffffffffffffffffffffffffffffffffffffff16141561059b576040517f08c379a000000000000000000000000000000000000000000000000000000000815260040161059290612982565b60405180910390fd5b8073ffffffffffffffffffffffffffffffffffffffff166105ba611064565b73ffffffffffffffffffffffffffffffffffffffff1614806105e957506105e8816105e3611064565b610eea565b5b610628576040517f08c379a000000000000000000000000000000000000000000000000000000000815260040161061f90612a14565b60405180910390fd5b610632838361106c565b505050565b6000600880549050905090565b61065561064f611064565b82611125565b610694576040517f08c379a000000000000000000000000000000000000000000000000000000000815260040161068b90612aa6565b60405180910390fd5b61069f838383611203565b505050565b60006106af8361088c565b82106106f0576040517f08c379a00000000000000000000000000000000000000000000000000000000081526004016106e790612b38565b60405180910390fd5b600660008473ffffffffffffffffffffffffffffffffffffffff1673ffffffffffffffffffffffffffffffffffffffff168152602001908152602001600020600083815260200190815260200160002054905092915050565b61076483838360405180602001604052806000815250610c30565b505050565b6000610773610637565b82106107b4576040517f08c379a00000000000000000000000000000000000000000000000000000000081526004016107ab90612bca565b60405180910390fd5b600882815481106107c8576107c7612bea565b5b90600052602060002001549050919050565b6000806002600084815260200190815260200160002060009054906101000a900473ffffffffffffffffffffffffffffffffffffffff169050600073ffffffffffffffffffffffffffffffffffffffff168173ffffffffffffffffffffffffffffffffffffffff161415610883576040517f08c379a000000000000000000000000000000000000000000000000000000000815260040161087a90612c8b565b60405180910390fd5b80915050919050565b60008073ffffffffffffffffffffffffffffffffffffffff168273ffffffffffffffffffffffffffffffffffffffff1614156108fd576040517f08c379a00000000000000000000000000000000000000000000000000000000081526004016108f490612d1d565b60405180910390fd5b600360008373ffffffffffffffffffffffffffffffffffffffff1673ffffffffffffffffffffffffffffffffffffffff168152602001908152602001600020549050919050565b6060600a805480602002602001604051908101604052809291908181526020016000905b82821015610a145783829060005260206000200180546109879061284c565b80601f01602080910402602001604051908101604052809291908181526020018280546109b39061284c565b8015610a005780601f106109d557610100808354040283529160200191610a00565b820191906000526020600020905b8154815290600101906020018083116109e357829003601f168201915b505050505081526020019060010190610968565b50505050905090565b606060018054610a2c9061284c565b80601f0160208091040260200160405190810160405280929190818152602001828054610a589061284c565b8015610aa55780601f10610a7a57610100808354040283529160200191610aa5565b820191906000526020600020905b815481529060010190602001808311610a8857829003601f168201915b5050505050905090565b610ab7611064565b73ffffffffffffffffffffffffffffffffffffffff168273ffffffffffffffffffffffffffffffffffffffff161415610b25576040517f08c379a0000000000000000000000000000000000000000000000000000000008152600401610b1c90612d89565b60405180910390fd5b8060056000610b32611064565b73ffffffffffffffffffffffffffffffffffffffff1673ffffffffffffffffffffffffffffffffffffffff16815260200190815260200160002060008473ffffffffffffffffffffffffffffffffffffffff1673ffffffffffffffffffffffffffffffffffffffff16815260200190815260200160002060006101000a81548160ff0219169083151502179055508173ffffffffffffffffffffffffffffffffffffffff16610bdf611064565b73ffffffffffffffffffffffffffffffffffffffff167f17307eab39ab6107e8899845ad3d59bd9653f200f220920489ca2b5937696c3183604051610c2491906120f6565b60405180910390a35050565b610c41610c3b611064565b83611125565b610c80576040517f08c379a0000000000000000000000000000000000000000000000000000000008152600401610c7790612aa6565b60405180910390fd5b610c8c8484848461145f565b50505050565b600a8181548110610ca257600080fd5b906000526020600020016000915090508054610cbd9061284c565b80601f0160208091040260200160405190810160405280929190818152602001828054610ce99061284c565b8015610d365780601f10610d0b57610100808354040283529160200191610d36565b820191906000526020600020905b815481529060010190602001808311610d1957829003601f168201915b505050505081565b6060610d4982610ff8565b610d88576040517f08c379a0000000000000000000000000000000000000000000000000000000008152600401610d7f90612e1b565b60405180910390fd5b6000610d926114bb565b90506000815111610db25760405180602001604052806000815250610ddd565b80610dbc846114d2565b604051602001610dcd929190612e77565b6040516020818303038152906040525b915050919050565b80600b81604051610df69190612e9b565b908152602001604051809103902060009054906101000a900460ff1615610e52576040517f08c379a0000000000000000000000000000000000000000000000000000000008152600401610e4990612efe565b60405180910390fd5b600a82908060018154018082558091505060019003906000526020600020016000909190919091509080519060200190610e8d929190611f9f565b5060006001600a80549050610ea29190612f4d565b9050610eae3382611633565b6001600b84604051610ec09190612e9b565b908152602001604051809103902060006101000a81548160ff021916908315150217905550505050565b6000600560008473ffffffffffffffffffffffffffffffffffffffff1673ffffffffffffffffffffffffffffffffffffffff16815260200190815260200160002060008373ffffffffffffffffffffffffffffffffffffffff1673ffffffffffffffffffffffffffffffffffffffff16815260200190815260200160002060009054906101000a900460ff16905092915050565b60007f780e9d63000000000000000000000000000000000000000000000000000000007bffffffffffffffffffffffffffffffffffffffffffffffffffffffff1916827bffffffffffffffffffffffffffffffffffffffffffffffffffffffff19161480610ff15750610ff082611651565b5b9050919050565b60008073ffffffffffffffffffffffffffffffffffffffff166002600084815260200190815260200160002060009054906101000a900473ffffffffffffffffffffffffffffffffffffffff1673ffffffffffffffffffffffffffffffffffffffff1614159050919050565b600033905090565b816004600083815260200190815260200160002060006101000a81548173ffffffffffffffffffffffffffffffffffffffff021916908373ffffffffffffffffffffffffffffffffffffffff160217905550808273ffffffffffffffffffffffffffffffffffffffff166110df836107da565b73ffffffffffffffffffffffffffffffffffffffff167f8c5be1e5ebec7d5bd14f71427d1e84f3dd0314c0f7b2291e5b200ac8c7c3b92560405160405180910390a45050565b600061113082610ff8565b61116f576040517f08c379a000000000000000000000000000000000000000000000000000000000815260040161116690612ff3565b60405180910390fd5b600061117a836107da565b90508073ffffffffffffffffffffffffffffffffffffffff168473ffffffffffffffffffffffffffffffffffffffff1614806111e957508373ffffffffffffffffffffffffffffffffffffffff166111d18461049a565b73ffffffffffffffffffffffffffffffffffffffff16145b806111fa57506111f98185610eea565b5b91505092915050565b8273ffffffffffffffffffffffffffffffffffffffff16611223826107da565b73ffffffffffffffffffffffffffffffffffffffff1614611279576040517f08c379a000000000000000000000000000000000000000000000000000000000815260040161127090613085565b60405180910390fd5b600073ffffffffffffffffffffffffffffffffffffffff168273ffffffffffffffffffffffffffffffffffffffff1614156112e9576040517f08c379a00000000000000000000000000000000000000000000000000000000081526004016112e090613117565b60405180910390fd5b6112f4838383611733565b6112ff60008261106c565b6001600360008573ffffffffffffffffffffffffffffffffffffffff1673ffffffffffffffffffffffffffffffffffffffff168152602001908152602001600020600082825461134f9190612f4d565b925050819055506001600360008473ffffffffffffffffffffffffffffffffffffffff1673ffffffffffffffffffffffffffffffffffffffff16815260200190815260200160002060008282546113a69190613137565b92505081905550816002600083815260200190815260200160002060006101000a81548173ffffffffffffffffffffffffffffffffffffffff021916908373ffffffffffffffffffffffffffffffffffffffff160217905550808273ffffffffffffffffffffffffffffffffffffffff168473ffffffffffffffffffffffffffffffffffffffff167fddf252ad1be2c89b69c2b068fc378daa952ba7f163c4a11628f55a4df523b3ef60405160405180910390a4505050565b61146a848484611203565b61147684848484611743565b6114b5576040517f08c379a00000000000000000000000000000000000000000000000000000000081526004016114ac906131ff565b60405180910390fd5b50505050565b606060405180602001604052806000815250905090565b6060600082141561151a576040518060400160405280600181526020017f3000000000000000000000000000000000000000000000000000000000000000815250905061162e565b600082905060005b6000821461154c5780806115359061321f565b915050600a826115459190613297565b9150611522565b60008167ffffffffffffffff81111561156857611567612545565b5b6040519080825280601f01601f19166020018201604052801561159a5781602001600182028036833780820191505090505b5090505b60008514611627576001826115b39190612f4d565b9150600a856115c291906132c8565b60306115ce9190613137565b60f81b8183815181106115e4576115e3612bea565b5b60200101907effffffffffffffffffffffffffffffffffffffffffffffffffffffffffffff1916908160001a905350600a856116209190613297565b945061159e565b8093505050505b919050565b61164d8282604051806020016040528060008152506118da565b5050565b60007f80ac58cd000000000000000000000000000000000000000000000000000000007bffffffffffffffffffffffffffffffffffffffffffffffffffffffff1916827bffffffffffffffffffffffffffffffffffffffffffffffffffffffff1916148061171c57507f5b5e139f000000000000000000000000000000000000000000000000000000007bffffffffffffffffffffffffffffffffffffffffffffffffffffffff1916827bffffffffffffffffffffffffffffffffffffffffffffffffffffffff1916145b8061172c575061172b82611935565b5b9050919050565b61173e83838361199f565b505050565b60006117648473ffffffffffffffffffffffffffffffffffffffff16611ab3565b156118cd578373ffffffffffffffffffffffffffffffffffffffff1663150b7a0261178d611064565b8786866040518563ffffffff1660e01b81526004016117af949392919061334e565b602060405180830381600087803b1580156117c957600080fd5b505af19250505080156117fa57506040513d601f19601f820116820180604052508101906117f791906133af565b60015b61187d573d806000811461182a576040519150601f19603f3d011682016040523d82523d6000602084013e61182f565b606091505b50600081511415611875576040517f08c379a000000000000000000000000000000000000000000000000000000000815260040161186c906131ff565b60405180910390fd5b805181602001fd5b63150b7a0260e01b7bffffffffffffffffffffffffffffffffffffffffffffffffffffffff1916817bffffffffffffffffffffffffffffffffffffffffffffffffffffffff1916149150506118d2565b600190505b949350505050565b6118e48383611ac6565b6118f16000848484611743565b611930576040517f08c379a0000000000000000000000000000000000000000000000000000000008152600401611927906131ff565b60405180910390fd5b505050565b60007f01ffc9a7000000000000000000000000000000000000000000000000000000007bffffffffffffffffffffffffffffffffffffffffffffffffffffffff1916827bffffffffffffffffffffffffffffffffffffffffffffffffffffffff1916149050919050565b6119aa838383611c94565b600073ffffffffffffffffffffffffffffffffffffffff168373ffffffffffffffffffffffffffffffffffffffff1614156119ed576119e881611c99565b611a2c565b8173ffffffffffffffffffffffffffffffffffffffff168373ffffffffffffffffffffffffffffffffffffffff1614611a2b57611a2a8382611ce2565b5b5b600073ffffffffffffffffffffffffffffffffffffffff168273ffffffffffffffffffffffffffffffffffffffff161415611a6f57611a6a81611e4f565b611aae565b8273ffffffffffffffffffffffffffffffffffffffff168273ffffffffffffffffffffffffffffffffffffffff1614611aad57611aac8282611f20565b5b5b505050565b600080823b905060008111915050919050565b600073ffffffffffffffffffffffffffffffffffffffff168273ffffffffffffffffffffffffffffffffffffffff161415611b36576040517f08c379a0000000000000000000000000000000000000000000000000000000008152600401611b2d90613428565b60405180910390fd5b611b3f81610ff8565b15611b7f576040517f08c379a0000000000000000000000000000000000000000000000000000000008152600401611b7690613494565b60405180910390fd5b611b8b60008383611733565b6001600360008473ffffffffffffffffffffffffffffffffffffffff1673ffffffffffffffffffffffffffffffffffffffff1681526020019081526020016000206000828254611bdb9190613137565b92505081905550816002600083815260200190815260200160002060006101000a81548173ffffffffffffffffffffffffffffffffffffffff021916908373ffffffffffffffffffffffffffffffffffffffff160217905550808273ffffffffffffffffffffffffffffffffffffffff16600073ffffffffffffffffffffffffffffffffffffffff167fddf252ad1be2c89b69c2b068fc378daa952ba7f163c4a11628f55a4df523b3ef60405160405180910390a45050565b505050565b6008805490506009600083815260200190815260200160002081905550600881908060018154018082558091505060019003906000526020600020016000909190919091505550565b60006001611cef8461088c565b611cf99190612f4d565b9050600060076000848152602001908152602001600020549050818114611dde576000600660008673ffffffffffffffffffffffffffffffffffffffff1673ffffffffffffffffffffffffffffffffffffffff168152602001908152602001600020600084815260200190815260200160002054905080600660008773ffffffffffffffffffffffffffffffffffffffff1673ffffffffffffffffffffffffffffffffffffffff168152602001908152602001600020600084815260200190815260200160002081905550816007600083815260200190815260200160002081905550505b6007600084815260200190815260200160002060009055600660008573ffffffffffffffffffffffffffffffffffffffff1673ffffffffffffffffffffffffffffffffffffffff16815260200190815260200160002060008381526020019081526020016000206000905550505050565b60006001600880549050611e639190612f4d565b9050600060096000848152602001908152602001600020549050600060088381548110611e9357611e92612bea565b5b906000526020600020015490508060088381548110611eb557611eb4612bea565b5b906000526020600020018190555081600960008381526020019081526020016000208190555060096000858152602001908152602001600020600090556008805480611f0457611f036134b4565b5b6001900381819060005260206000200160009055905550505050565b6000611f2b8361088c565b905081600660008573ffffffffffffffffffffffffffffffffffffffff1673ffffffffffffffffffffffffffffffffffffffff168152602001908152602001600020600083815260200190815260200160002081905550806007600084815260200190815260200160002081905550505050565b828054611fab9061284c565b90600052602060002090601f016020900481019282611fcd5760008555612014565b82601f10611fe657805160ff1916838001178555612014565b82800160010185558215612014579182015b82811115612013578251825591602001919060010190611ff8565b5b5090506120219190612025565b5090565b5b8082111561203e576000816000905550600101612026565b5090565b6000604051905090565b600080fd5b600080fd5b60007fffffffff0000000000000000000000000000000000000000000000000000000082169050919050565b61208b81612056565b811461209657600080fd5b50565b6000813590506120a881612082565b92915050565b6000602082840312156120c4576120c361204c565b5b60006120d284828501612099565b91505092915050565b60008115159050919050565b6120f0816120db565b82525050565b600060208201905061210b60008301846120e7565b92915050565b600081519050919050565b600082825260208201905092915050565b60005b8381101561214b578082015181840152602081019050612130565b8381111561215a576000848401525b50505050565b6000601f19601f8301169050919050565b600061217c82612111565b612186818561211c565b935061219681856020860161212d565b61219f81612160565b840191505092915050565b600060208201905081810360008301526121c48184612171565b905092915050565b6000819050919050565b6121df816121cc565b81146121ea57600080fd5b50565b6000813590506121fc816121d6565b92915050565b6000602082840312156122185761221761204c565b5b6000612226848285016121ed565b91505092915050565b600073ffffffffffffffffffffffffffffffffffffffff82169050919050565b600061225a8261222f565b9050919050565b61226a8161224f565b82525050565b60006020820190506122856000830184612261565b92915050565b6122948161224f565b811461229f57600080fd5b50565b6000813590506122b18161228b565b92915050565b600080604083850312156122ce576122cd61204c565b5b60006122dc858286016122a2565b92505060206122ed858286016121ed565b9150509250929050565b612300816121cc565b82525050565b600060208201905061231b60008301846122f7565b92915050565b60008060006060848603121561233a5761233961204c565b5b6000612348868287016122a2565b9350506020612359868287016122a2565b925050604061236a868287016121ed565b9150509250925092565b60006020828403121561238a5761238961204c565b5b6000612398848285016122a2565b91505092915050565b600081519050919050565b600082825260208201905092915050565b6000819050602082019050919050565b600082825260208201905092915050565b60006123e982612111565b6123f381856123cd565b935061240381856020860161212d565b61240c81612160565b840191505092915050565b600061242383836123de565b905092915050565b6000602082019050919050565b6000612443826123a1565b61244d81856123ac565b93508360208202850161245f856123bd565b8060005b8581101561249b578484038952815161247c8582612417565b94506124878361242b565b925060208a01995050600181019050612463565b50829750879550505050505092915050565b600060208201905081810360008301526124c78184612438565b905092915050565b6124d8816120db565b81146124e357600080fd5b50565b6000813590506124f5816124cf565b92915050565b600080604083850312156125125761251161204c565b5b6000612520858286016122a2565b9250506020612531858286016124e6565b9150509250929050565b600080fd5b600080fd5b7f4e487b7100000000000000000000000000000000000000000000000000000000600052604160045260246000fd5b61257d82612160565b810181811067ffffffffffffffff8211171561259c5761259b612545565b5b80604052505050565b60006125af612042565b90506125bb8282612574565b919050565b600067ffffffffffffffff8211156125db576125da612545565b5b6125e482612160565b9050602081019050919050565b82818337600083830152505050565b600061261361260e846125c0565b6125a5565b90508281526020810184848401111561262f5761262e612540565b5b61263a8482856125f1565b509392505050565b600082601f8301126126575761265661253b565b5b8135612667848260208601612600565b91505092915050565b6000806000806080858703121561268a5761268961204c565b5b6000612698878288016122a2565b94505060206126a9878288016122a2565b93505060406126ba878288016121ed565b925050606085013567ffffffffffffffff8111156126db576126da612051565b5b6126e787828801612642565b91505092959194509250565b600067ffffffffffffffff82111561270e5761270d612545565b5b61271782612160565b9050602081019050919050565b6000612737612732846126f3565b6125a5565b90508281526020810184848401111561275357612752612540565b5b61275e8482856125f1565b509392505050565b600082601f83011261277b5761277a61253b565b5b813561278b848260208601612724565b91505092915050565b6000602082840312156127aa576127a961204c565b5b600082013567ffffffffffffffff8111156127c8576127c7612051565b5b6127d484828501612766565b91505092915050565b600080604083850312156127f4576127f361204c565b5b6000612802858286016122a2565b9250506020612813858286016122a2565b9150509250929050565b7f4e487b7100000000000000000000000000000000000000000000000000000000600052602260045260246000fd5b6000600282049050600182168061286457607f821691505b602082108114156128785761287761281d565b5b50919050565b7f4552433732313a20617070726f76656420717565727920666f72206e6f6e657860008201527f697374656e7420746f6b656e0000000000000000000000000000000000000000602082015250565b60006128da602c8361211c565b91506128e58261287e565b604082019050919050565b60006020820190508181036000830152612909816128cd565b9050919050565b7f4552433732313a20617070726f76616c20746f2063757272656e74206f776e6560008201527f7200000000000000000000000000000000000000000000000000000000000000602082015250565b600061296c60218361211c565b915061297782612910565b604082019050919050565b6000602082019050818103600083015261299b8161295f565b9050919050565b7f4552433732313a20617070726f76652063616c6c6572206973206e6f74206f7760008201527f6e6572206e6f7220617070726f76656420666f7220616c6c0000000000000000602082015250565b60006129fe60388361211c565b9150612a09826129a2565b604082019050919050565b60006020820190508181036000830152612a2d816129f1565b9050919050565b7f4552433732313a207472616e736665722063616c6c6572206973206e6f74206f60008201527f776e6572206e6f7220617070726f766564000000000000000000000000000000602082015250565b6000612a9060318361211c565b9150612a9b82612a34565b604082019050919050565b60006020820190508181036000830152612abf81612a83565b9050919050565b7f455243373231456e756d657261626c653a206f776e657220696e646578206f7560008201527f74206f6620626f756e6473000000000000000000000000000000000000000000602082015250565b6000612b22602b8361211c565b9150612b2d82612ac6565b604082019050919050565b60006020820190508181036000830152612b5181612b15565b9050919050565b7f455243373231456e756d657261626c653a20676c6f62616c20696e646578206f60008201527f7574206f6620626f756e64730000000000000000000000000000000000000000602082015250565b6000612bb4602c8361211c565b9150612bbf82612b58565b604082019050919050565b60006020820190508181036000830152612be381612ba7565b9050919050565b7f4e487b7100000000000000000000000000000000000000000000000000000000600052603260045260246000fd5b7f4552433732313a206f776e657220717565727920666f72206e6f6e657869737460008201527f656e7420746f6b656e0000000000000000000000000000000000000000000000602082015250565b6000612c7560298361211c565b9150612c8082612c19565b604082019050919050565b60006020820190508181036000830152612ca481612c68565b9050919050565b7f4552433732313a2062616c616e636520717565727920666f7220746865207a6560008201527f726f206164647265737300000000000000000000000000000000000000000000602082015250565b6000612d07602a8361211c565b9150612d1282612cab565b604082019050919050565b60006020820190508181036000830152612d3681612cfa565b9050919050565b7f4552433732313a20617070726f766520746f2063616c6c657200000000000000600082015250565b6000612d7360198361211c565b9150612d7e82612d3d565b602082019050919050565b60006020820190508181036000830152612da281612d66565b9050919050565b7f4552433732314d657461646174613a2055524920717565727920666f72206e6f60008201527f6e6578697374656e7420746f6b656e0000000000000000000000000000000000602082015250565b6000612e05602f8361211c565b9150612e1082612da9565b604082019050919050565b60006020820190508181036000830152612e3481612df8565b9050919050565b600081905092915050565b6000612e5182612111565b612e5b8185612e3b565b9350612e6b81856020860161212d565b80840191505092915050565b6000612e838285612e46565b9150612e8f8284612e46565b91508190509392505050565b6000612ea78284612e46565b915081905092915050565b7f436f6c6f722073686f756c6420626520756e6971756500000000000000000000600082015250565b6000612ee860168361211c565b9150612ef382612eb2565b602082019050919050565b60006020820190508181036000830152612f1781612edb565b9050919050565b7f4e487b7100000000000000000000000000000000000000000000000000000000600052601160045260246000fd5b6000612f58826121cc565b9150612f63836121cc565b925082821015612f7657612f75612f1e565b5b828203905092915050565b7f4552433732313a206f70657261746f7220717565727920666f72206e6f6e657860008201527f697374656e7420746f6b656e0000000000000000000000000000000000000000602082015250565b6000612fdd602c8361211c565b9150612fe882612f81565b604082019050919050565b6000602082019050818103600083015261300c81612fd0565b9050919050565b7f4552433732313a207472616e73666572206f6620746f6b656e2074686174206960008201527f73206e6f74206f776e0000000000000000000000000000000000000000000000602082015250565b600061306f60298361211c565b915061307a82613013565b604082019050919050565b6000602082019050818103600083015261309e81613062565b9050919050565b7f4552433732313a207472616e7366657220746f20746865207a65726f2061646460008201527f7265737300000000000000000000000000000000000000000000000000000000602082015250565b600061310160248361211c565b915061310c826130a5565b604082019050919050565b60006020820190508181036000830152613130816130f4565b9050919050565b6000613142826121cc565b915061314d836121cc565b9250827fffffffffffffffffffffffffffffffffffffffffffffffffffffffffffffffff0382111561318257613181612f1e565b5b828201905092915050565b7f4552433732313a207472616e7366657220746f206e6f6e20455243373231526560008201527f63656976657220696d706c656d656e7465720000000000000000000000000000602082015250565b60006131e960328361211c565b91506131f48261318d565b604082019050919050565b60006020820190508181036000830152613218816131dc565b9050919050565b600061322a826121cc565b91507fffffffffffffffffffffffffffffffffffffffffffffffffffffffffffffffff82141561325d5761325c612f1e565b5b600182019050919050565b7f4e487b7100000000000000000000000000000000000000000000000000000000600052601260045260246000fd5b60006132a2826121cc565b91506132ad836121cc565b9250826132bd576132bc613268565b5b828204905092915050565b60006132d3826121cc565b91506132de836121cc565b9250826132ee576132ed613268565b5b828206905092915050565b600081519050919050565b600082825260208201905092915050565b6000613320826132f9565b61332a8185613304565b935061333a81856020860161212d565b61334381612160565b840191505092915050565b60006080820190506133636000830187612261565b6133706020830186612261565b61337d60408301856122f7565b818103606083015261338f8184613315565b905095945050505050565b6000815190506133a981612082565b92915050565b6000602082840312156133c5576133c461204c565b5b60006133d38482850161339a565b91505092915050565b7f4552433732313a206d696e7420746f20746865207a65726f2061646472657373600082015250565b600061341260208361211c565b915061341d826133dc565b602082019050919050565b6000602082019050818103600083015261344181613405565b9050919050565b7f4552433732313a20746f6b656e20616c7265616479206d696e74656400000000600082015250565b600061347e601c8361211c565b915061348982613448565b602082019050919050565b600060208201905081810360008301526134ad81613471565b9050919050565b7f4e487b7100000000000000000000000000000000000000000000000000000000600052603160045260246000fdfea2646970667358221220ae3aaf90bf7765f7c29fc4cc62657b37b1494b9abea29ffb7e3d1c75e7105fdf64736f6c63430008090033",
  "immutableReferences": {},
  "source": "// SPDX-License-Identifier: MIT\npragma solidity >=0.7.6;\n\nimport \"@openzeppelin/contracts/token/ERC721/ERC721.sol\";\nimport \"@openzeppelin/contracts/token/ERC721/extensions/ERC721Enumerable.sol\";\n\ncontract Color is ERC721, ERC721Enumerable {\n  string[] public colors;\n\n  mapping(string => bool) _colorExists;\n\n  constructor() ERC721(\"Color\", \"CLR\") {}\n\n  modifier uniqueColor(string memory _color) {\n    require(!_colorExists[_color], \"Color should be unique\");\n    _;\n  }\n\n  function getColors() external view returns (string[] memory) {\n    return colors;\n  }\n\n  function _beforeTokenTransfer(\n    address from,\n    address to,\n    uint256 tokenId\n  ) internal override(ERC721, ERC721Enumerable) {\n    super._beforeTokenTransfer(from, to, tokenId);\n  }\n\n  function supportsInterface(bytes4 interfaceId)\n    public\n    view\n    override(ERC721, ERC721Enumerable)\n    returns (bool)\n  {\n    return super.supportsInterface(interfaceId);\n  }\n\n  function mint(string memory _color) public uniqueColor(_color) {\n    colors.push(_color);\n    uint256 _id = colors.length - 1;\n    _safeMint(msg.sender, _id);\n    _colorExists[_color] = true;\n  }\n}\n",
  "sourcePath": "/home/eduwr/Documents/eduardo/nft-color-project/src/contracts/Color.sol",
  "compiler": {
    "name": "solc",
    "version": "0.8.9+commit.e5eed63a.Emscripten.clang"
  },
  "schemaVersion": "3.4.3",
  "updatedAt": "2021-10-06T00:21:18.065Z",
  "networkType": "ethereum",
  "devdoc": {
    "kind": "dev",
    "methods": {
      "approve(address,uint256)": {
        "details": "See {IERC721-approve}."
      },
      "balanceOf(address)": {
        "details": "See {IERC721-balanceOf}."
      },
      "getApproved(uint256)": {
        "details": "See {IERC721-getApproved}."
      },
      "isApprovedForAll(address,address)": {
        "details": "See {IERC721-isApprovedForAll}."
      },
      "name()": {
        "details": "See {IERC721Metadata-name}."
      },
      "ownerOf(uint256)": {
        "details": "See {IERC721-ownerOf}."
      },
      "safeTransferFrom(address,address,uint256)": {
        "details": "See {IERC721-safeTransferFrom}."
      },
      "safeTransferFrom(address,address,uint256,bytes)": {
        "details": "See {IERC721-safeTransferFrom}."
      },
      "setApprovalForAll(address,bool)": {
        "details": "See {IERC721-setApprovalForAll}."
      },
      "symbol()": {
        "details": "See {IERC721Metadata-symbol}."
      },
      "tokenByIndex(uint256)": {
        "details": "See {IERC721Enumerable-tokenByIndex}."
      },
      "tokenOfOwnerByIndex(address,uint256)": {
        "details": "See {IERC721Enumerable-tokenOfOwnerByIndex}."
      },
      "tokenURI(uint256)": {
        "details": "See {IERC721Metadata-tokenURI}."
      },
      "totalSupply()": {
        "details": "See {IERC721Enumerable-totalSupply}."
      },
      "transferFrom(address,address,uint256)": {
        "details": "See {IERC721-transferFrom}."
      }
    },
    "version": 1
  },
  "userdoc": {
    "kind": "user",
    "methods": {},
    "version": 1
  }
}