{
  "contractName": "Color",
  "abi": [
    {
      "inputs": [],
      "stateMutability": "nonpayable",
      "type": "constructor"
    },
    {
      "anonymous": false,
      "inputs": [
        {
          "indexed": true,
          "internalType": "address",
          "name": "owner",
          "type": "address"
        },
        {
          "indexed": true,
          "internalType": "address",
          "name": "approved",
          "type": "address"
        },
        {
          "indexed": true,
          "internalType": "uint256",
          "name": "tokenId",
          "type": "uint256"
        }
      ],
      "name": "Approval",
      "type": "event"
    },
    {
      "anonymous": false,
      "inputs": [
        {
          "indexed": true,
          "internalType": "address",
          "name": "owner",
          "type": "address"
        },
        {
          "indexed": true,
          "internalType": "address",
          "name": "operator",
          "type": "address"
        },
        {
          "indexed": false,
          "internalType": "bool",
          "name": "approved",
          "type": "bool"
        }
      ],
      "name": "ApprovalForAll",
      "type": "event"
    },
    {
      "anonymous": false,
      "inputs": [
        {
          "indexed": true,
          "internalType": "address",
          "name": "from",
          "type": "address"
        },
        {
          "indexed": true,
          "internalType": "address",
          "name": "to",
          "type": "address"
        },
        {
          "indexed": true,
          "internalType": "uint256",
          "name": "tokenId",
          "type": "uint256"
        }
      ],
      "name": "Transfer",
      "type": "event"
    },
    {
      "inputs": [
        {
          "internalType": "address",
          "name": "to",
          "type": "address"
        },
        {
          "internalType": "uint256",
          "name": "tokenId",
          "type": "uint256"
        }
      ],
      "name": "approve",
      "outputs": [],
      "stateMutability": "nonpayable",
      "type": "function"
    },
    {
      "inputs": [
        {
          "internalType": "address",
          "name": "owner",
          "type": "address"
        }
      ],
      "name": "balanceOf",
      "outputs": [
        {
          "internalType": "uint256",
          "name": "",
          "type": "uint256"
        }
      ],
      "stateMutability": "view",
      "type": "function",
      "constant": true
    },
    {
      "inputs": [
        {
          "internalType": "uint256",
          "name": "",
          "type": "uint256"
        }
      ],
      "name": "colors",
      "outputs": [
        {
          "internalType": "string",
          "name": "",
          "type": "string"
        }
      ],
      "stateMutability": "view",
      "type": "function",
      "constant": true
    },
    {
      "inputs": [
        {
          "internalType": "uint256",
          "name": "tokenId",
          "type": "uint256"
        }
      ],
      "name": "getApproved",
      "outputs": [
        {
          "internalType": "address",
          "name": "",
          "type": "address"
        }
      ],
      "stateMutability": "view",
      "type": "function",
      "constant": true
    },
    {
      "inputs": [
        {
          "internalType": "address",
          "name": "owner",
          "type": "address"
        },
        {
          "internalType": "address",
          "name": "operator",
          "type": "address"
        }
      ],
      "name": "isApprovedForAll",
      "outputs": [
        {
          "internalType": "bool",
          "name": "",
          "type": "bool"
        }
      ],
      "stateMutability": "view",
      "type": "function",
      "constant": true
    },
    {
      "inputs": [],
      "name": "name",
      "outputs": [
        {
          "internalType": "string",
          "name": "",
          "type": "string"
        }
      ],
      "stateMutability": "view",
      "type": "function",
      "constant": true
    },
    {
      "inputs": [
        {
          "internalType": "uint256",
          "name": "tokenId",
          "type": "uint256"
        }
      ],
      "name": "ownerOf",
      "outputs": [
        {
          "internalType": "address",
          "name": "",
          "type": "address"
        }
      ],
      "stateMutability": "view",
      "type": "function",
      "constant": true
    },
    {
      "inputs": [
        {
          "internalType": "address",
          "name": "from",
          "type": "address"
        },
        {
          "internalType": "address",
          "name": "to",
          "type": "address"
        },
        {
          "internalType": "uint256",
          "name": "tokenId",
          "type": "uint256"
        }
      ],
      "name": "safeTransferFrom",
      "outputs": [],
      "stateMutability": "nonpayable",
      "type": "function"
    },
    {
      "inputs": [
        {
          "internalType": "address",
          "name": "from",
          "type": "address"
        },
        {
          "internalType": "address",
          "name": "to",
          "type": "address"
        },
        {
          "internalType": "uint256",
          "name": "tokenId",
          "type": "uint256"
        },
        {
          "internalType": "bytes",
          "name": "_data",
          "type": "bytes"
        }
      ],
      "name": "safeTransferFrom",
      "outputs": [],
      "stateMutability": "nonpayable",
      "type": "function"
    },
    {
      "inputs": [
        {
          "internalType": "address",
          "name": "operator",
          "type": "address"
        },
        {
          "internalType": "bool",
          "name": "approved",
          "type": "bool"
        }
      ],
      "name": "setApprovalForAll",
      "outputs": [],
      "stateMutability": "nonpayable",
      "type": "function"
    },
    {
      "inputs": [
        {
          "internalType": "bytes4",
          "name": "interfaceId",
          "type": "bytes4"
        }
      ],
      "name": "supportsInterface",
      "outputs": [
        {
          "internalType": "bool",
          "name": "",
          "type": "bool"
        }
      ],
      "stateMutability": "view",
      "type": "function",
      "constant": true
    },
    {
      "inputs": [],
      "name": "symbol",
      "outputs": [
        {
          "internalType": "string",
          "name": "",
          "type": "string"
        }
      ],
      "stateMutability": "view",
      "type": "function",
      "constant": true
    },
    {
      "inputs": [
        {
          "internalType": "uint256",
          "name": "tokenId",
          "type": "uint256"
        }
      ],
      "name": "tokenURI",
      "outputs": [
        {
          "internalType": "string",
          "name": "",
          "type": "string"
        }
      ],
      "stateMutability": "view",
      "type": "function",
      "constant": true
    },
    {
      "inputs": [
        {
          "internalType": "address",
          "name": "from",
          "type": "address"
        },
        {
          "internalType": "address",
          "name": "to",
          "type": "address"
        },
        {
          "internalType": "uint256",
          "name": "tokenId",
          "type": "uint256"
        }
      ],
      "name": "transferFrom",
      "outputs": [],
      "stateMutability": "nonpayable",
      "type": "function"
    },
    {
      "inputs": [
        {
          "internalType": "string",
          "name": "_color",
          "type": "string"
        }
      ],
      "name": "mint",
      "outputs": [],
      "stateMutability": "nonpayable",
      "type": "function"
    }
  ],
  "bytecode": "0x60806040523480156200001157600080fd5b506040518060400160405280600581526020017f436f6c6f720000000000000000000000000000000000000000000000000000008152506040518060400160405280600381526020017f434c520000000000000000000000000000000000000000000000000000000000815250816000908051906020019062000096929190620000b8565b508060019080519060200190620000af929190620000b8565b505050620001cd565b828054620000c69062000197565b90600052602060002090601f016020900481019282620000ea576000855562000136565b82601f106200010557805160ff191683800117855562000136565b8280016001018555821562000136579182015b828111156200013557825182559160200191906001019062000118565b5b50905062000145919062000149565b5090565b5b80821115620001645760008160009055506001016200014a565b5090565b7f4e487b7100000000000000000000000000000000000000000000000000000000600052602260045260246000fd5b60006002820490506001821680620001b057607f821691505b60208210811415620001c757620001c662000168565b5b50919050565b6129cb80620001dd6000396000f3fe608060405234801561001057600080fd5b50600436106100f55760003560e01c806370a0823111610097578063bd11f69d11610066578063bd11f69d14610282578063c87b56dd146102b2578063d85d3d27146102e2578063e985e9c5146102fe576100f5565b806370a08231146101fc57806395d89b411461022c578063a22cb4651461024a578063b88d4fde14610266576100f5565b8063095ea7b3116100d3578063095ea7b31461017857806323b872dd1461019457806342842e0e146101b05780636352211e146101cc576100f5565b806301ffc9a7146100fa57806306fdde031461012a578063081812fc14610148575b600080fd5b610114600480360381019061010f919061184d565b61032e565b6040516101219190611895565b60405180910390f35b610132610410565b60405161013f9190611949565b60405180910390f35b610162600480360381019061015d91906119a1565b6104a2565b60405161016f9190611a0f565b60405180910390f35b610192600480360381019061018d9190611a56565b610527565b005b6101ae60048036038101906101a99190611a96565b61063f565b005b6101ca60048036038101906101c59190611a96565b61069f565b005b6101e660048036038101906101e191906119a1565b6106bf565b6040516101f39190611a0f565b60405180910390f35b61021660048036038101906102119190611ae9565b610771565b6040516102239190611b25565b60405180910390f35b610234610829565b6040516102419190611949565b60405180910390f35b610264600480360381019061025f9190611b6c565b6108bb565b005b610280600480360381019061027b9190611ce1565b610a3c565b005b61029c600480360381019061029791906119a1565b610a9e565b6040516102a99190611949565b60405180910390f35b6102cc60048036038101906102c791906119a1565b610b4a565b6040516102d99190611949565b60405180910390f35b6102fc60048036038101906102f79190611e05565b610bf1565b005b61031860048036038101906103139190611e4e565b610c88565b6040516103259190611895565b60405180910390f35b60007f80ac58cd000000000000000000000000000000000000000000000000000000007bffffffffffffffffffffffffffffffffffffffffffffffffffffffff1916827bffffffffffffffffffffffffffffffffffffffffffffffffffffffff191614806103f957507f5b5e139f000000000000000000000000000000000000000000000000000000007bffffffffffffffffffffffffffffffffffffffffffffffffffffffff1916827bffffffffffffffffffffffffffffffffffffffffffffffffffffffff1916145b80610409575061040882610d1c565b5b9050919050565b60606000805461041f90611ebd565b80601f016020809104026020016040519081016040528092919081815260200182805461044b90611ebd565b80156104985780601f1061046d57610100808354040283529160200191610498565b820191906000526020600020905b81548152906001019060200180831161047b57829003601f168201915b5050505050905090565b60006104ad82610d86565b6104ec576040517f08c379a00000000000000000000000000000000000000000000000000000000081526004016104e390611f61565b60405180910390fd5b6004600083815260200190815260200160002060009054906101000a900473ffffffffffffffffffffffffffffffffffffffff169050919050565b6000610532826106bf565b90508073ffffffffffffffffffffffffffffffffffffffff168373ffffffffffffffffffffffffffffffffffffffff1614156105a3576040517f08c379a000000000000000000000000000000000000000000000000000000000815260040161059a90611ff3565b60405180910390fd5b8073ffffffffffffffffffffffffffffffffffffffff166105c2610df2565b73ffffffffffffffffffffffffffffffffffffffff1614806105f157506105f0816105eb610df2565b610c88565b5b610630576040517f08c379a000000000000000000000000000000000000000000000000000000000815260040161062790612085565b60405180910390fd5b61063a8383610dfa565b505050565b61065061064a610df2565b82610eb3565b61068f576040517f08c379a000000000000000000000000000000000000000000000000000000000815260040161068690612117565b60405180910390fd5b61069a838383610f91565b505050565b6106ba83838360405180602001604052806000815250610a3c565b505050565b6000806002600084815260200190815260200160002060009054906101000a900473ffffffffffffffffffffffffffffffffffffffff169050600073ffffffffffffffffffffffffffffffffffffffff168173ffffffffffffffffffffffffffffffffffffffff161415610768576040517f08c379a000000000000000000000000000000000000000000000000000000000815260040161075f906121a9565b60405180910390fd5b80915050919050565b60008073ffffffffffffffffffffffffffffffffffffffff168273ffffffffffffffffffffffffffffffffffffffff1614156107e2576040517f08c379a00000000000000000000000000000000000000000000000000000000081526004016107d99061223b565b60405180910390fd5b600360008373ffffffffffffffffffffffffffffffffffffffff1673ffffffffffffffffffffffffffffffffffffffff168152602001908152602001600020549050919050565b60606001805461083890611ebd565b80601f016020809104026020016040519081016040528092919081815260200182805461086490611ebd565b80156108b15780601f10610886576101008083540402835291602001916108b1565b820191906000526020600020905b81548152906001019060200180831161089457829003601f168201915b5050505050905090565b6108c3610df2565b73ffffffffffffffffffffffffffffffffffffffff168273ffffffffffffffffffffffffffffffffffffffff161415610931576040517f08c379a0000000000000000000000000000000000000000000000000000000008152600401610928906122a7565b60405180910390fd5b806005600061093e610df2565b73ffffffffffffffffffffffffffffffffffffffff1673ffffffffffffffffffffffffffffffffffffffff16815260200190815260200160002060008473ffffffffffffffffffffffffffffffffffffffff1673ffffffffffffffffffffffffffffffffffffffff16815260200190815260200160002060006101000a81548160ff0219169083151502179055508173ffffffffffffffffffffffffffffffffffffffff166109eb610df2565b73ffffffffffffffffffffffffffffffffffffffff167f17307eab39ab6107e8899845ad3d59bd9653f200f220920489ca2b5937696c3183604051610a309190611895565b60405180910390a35050565b610a4d610a47610df2565b83610eb3565b610a8c576040517f08c379a0000000000000000000000000000000000000000000000000000000008152600401610a8390612117565b60405180910390fd5b610a98848484846111ed565b50505050565b60068181548110610aae57600080fd5b906000526020600020016000915090508054610ac990611ebd565b80601f0160208091040260200160405190810160405280929190818152602001828054610af590611ebd565b8015610b425780601f10610b1757610100808354040283529160200191610b42565b820191906000526020600020905b815481529060010190602001808311610b2557829003601f168201915b505050505081565b6060610b5582610d86565b610b94576040517f08c379a0000000000000000000000000000000000000000000000000000000008152600401610b8b90612339565b60405180910390fd5b6000610b9e611249565b90506000815111610bbe5760405180602001604052806000815250610be9565b80610bc884611260565b604051602001610bd9929190612395565b6040516020818303038152906040525b915050919050565b600681908060018154018082558091505060019003906000526020600020016000909190919091509080519060200190610c2c92919061173e565b5060006001600680549050610c4191906123e8565b9050610c4d33826113c1565b6001600783604051610c5f919061241c565b908152602001604051809103902060006101000a81548160ff0219169083151502179055505050565b6000600560008473ffffffffffffffffffffffffffffffffffffffff1673ffffffffffffffffffffffffffffffffffffffff16815260200190815260200160002060008373ffffffffffffffffffffffffffffffffffffffff1673ffffffffffffffffffffffffffffffffffffffff16815260200190815260200160002060009054906101000a900460ff16905092915050565b60007f01ffc9a7000000000000000000000000000000000000000000000000000000007bffffffffffffffffffffffffffffffffffffffffffffffffffffffff1916827bffffffffffffffffffffffffffffffffffffffffffffffffffffffff1916149050919050565b60008073ffffffffffffffffffffffffffffffffffffffff166002600084815260200190815260200160002060009054906101000a900473ffffffffffffffffffffffffffffffffffffffff1673ffffffffffffffffffffffffffffffffffffffff1614159050919050565b600033905090565b816004600083815260200190815260200160002060006101000a81548173ffffffffffffffffffffffffffffffffffffffff021916908373ffffffffffffffffffffffffffffffffffffffff160217905550808273ffffffffffffffffffffffffffffffffffffffff16610e6d836106bf565b73ffffffffffffffffffffffffffffffffffffffff167f8c5be1e5ebec7d5bd14f71427d1e84f3dd0314c0f7b2291e5b200ac8c7c3b92560405160405180910390a45050565b6000610ebe82610d86565b610efd576040517f08c379a0000000000000000000000000000000000000000000000000000000008152600401610ef4906124a5565b60405180910390fd5b6000610f08836106bf565b90508073ffffffffffffffffffffffffffffffffffffffff168473ffffffffffffffffffffffffffffffffffffffff161480610f7757508373ffffffffffffffffffffffffffffffffffffffff16610f5f846104a2565b73ffffffffffffffffffffffffffffffffffffffff16145b80610f885750610f878185610c88565b5b91505092915050565b8273ffffffffffffffffffffffffffffffffffffffff16610fb1826106bf565b73ffffffffffffffffffffffffffffffffffffffff1614611007576040517f08c379a0000000000000000000000000000000000000000000000000000000008152600401610ffe90612537565b60405180910390fd5b600073ffffffffffffffffffffffffffffffffffffffff168273ffffffffffffffffffffffffffffffffffffffff161415611077576040517f08c379a000000000000000000000000000000000000000000000000000000000815260040161106e906125c9565b60405180910390fd5b61108283838361158f565b61108d600082610dfa565b6001600360008573ffffffffffffffffffffffffffffffffffffffff1673ffffffffffffffffffffffffffffffffffffffff16815260200190815260200160002060008282546110dd91906123e8565b925050819055506001600360008473ffffffffffffffffffffffffffffffffffffffff1673ffffffffffffffffffffffffffffffffffffffff168152602001908152602001600020600082825461113491906125e9565b92505081905550816002600083815260200190815260200160002060006101000a81548173ffffffffffffffffffffffffffffffffffffffff021916908373ffffffffffffffffffffffffffffffffffffffff160217905550808273ffffffffffffffffffffffffffffffffffffffff168473ffffffffffffffffffffffffffffffffffffffff167fddf252ad1be2c89b69c2b068fc378daa952ba7f163c4a11628f55a4df523b3ef60405160405180910390a4505050565b6111f8848484610f91565b61120484848484611594565b611243576040517f08c379a000000000000000000000000000000000000000000000000000000000815260040161123a906126b1565b60405180910390fd5b50505050565b606060405180602001604052806000815250905090565b606060008214156112a8576040518060400160405280600181526020017f300000000000000000000000000000000000000000000000000000000000000081525090506113bc565b600082905060005b600082146112da5780806112c3906126d1565b915050600a826112d39190612749565b91506112b0565b60008167ffffffffffffffff8111156112f6576112f5611bb6565b5b6040519080825280601f01601f1916602001820160405280156113285781602001600182028036833780820191505090505b5090505b600085146113b55760018261134191906123e8565b9150600a85611350919061277a565b603061135c91906125e9565b60f81b818381518110611372576113716127ab565b5b60200101907effffffffffffffffffffffffffffffffffffffffffffffffffffffffffffff1916908160001a905350600a856113ae9190612749565b945061132c565b8093505050505b919050565b600073ffffffffffffffffffffffffffffffffffffffff168273ffffffffffffffffffffffffffffffffffffffff161415611431576040517f08c379a000000000000000000000000000000000000000000000000000000000815260040161142890612826565b60405180910390fd5b61143a81610d86565b1561147a576040517f08c379a000000000000000000000000000000000000000000000000000000000815260040161147190612892565b60405180910390fd5b6114866000838361158f565b6001600360008473ffffffffffffffffffffffffffffffffffffffff1673ffffffffffffffffffffffffffffffffffffffff16815260200190815260200160002060008282546114d691906125e9565b92505081905550816002600083815260200190815260200160002060006101000a81548173ffffffffffffffffffffffffffffffffffffffff021916908373ffffffffffffffffffffffffffffffffffffffff160217905550808273ffffffffffffffffffffffffffffffffffffffff16600073ffffffffffffffffffffffffffffffffffffffff167fddf252ad1be2c89b69c2b068fc378daa952ba7f163c4a11628f55a4df523b3ef60405160405180910390a45050565b505050565b60006115b58473ffffffffffffffffffffffffffffffffffffffff1661172b565b1561171e578373ffffffffffffffffffffffffffffffffffffffff1663150b7a026115de610df2565b8786866040518563ffffffff1660e01b81526004016116009493929190612907565b602060405180830381600087803b15801561161a57600080fd5b505af192505050801561164b57506040513d601f19601f820116820180604052508101906116489190612968565b60015b6116ce573d806000811461167b576040519150601f19603f3d011682016040523d82523d6000602084013e611680565b606091505b506000815114156116c6576040517f08c379a00000000000000000000000000000000000000000000000000000000081526004016116bd906126b1565b60405180910390fd5b805181602001fd5b63150b7a0260e01b7bffffffffffffffffffffffffffffffffffffffffffffffffffffffff1916817bffffffffffffffffffffffffffffffffffffffffffffffffffffffff191614915050611723565b600190505b949350505050565b600080823b905060008111915050919050565b82805461174a90611ebd565b90600052602060002090601f01602090048101928261176c57600085556117b3565b82601f1061178557805160ff19168380011785556117b3565b828001600101855582156117b3579182015b828111156117b2578251825591602001919060010190611797565b5b5090506117c091906117c4565b5090565b5b808211156117dd5760008160009055506001016117c5565b5090565b6000604051905090565b600080fd5b600080fd5b60007fffffffff0000000000000000000000000000000000000000000000000000000082169050919050565b61182a816117f5565b811461183557600080fd5b50565b60008135905061184781611821565b92915050565b600060208284031215611863576118626117eb565b5b600061187184828501611838565b91505092915050565b60008115159050919050565b61188f8161187a565b82525050565b60006020820190506118aa6000830184611886565b92915050565b600081519050919050565b600082825260208201905092915050565b60005b838110156118ea5780820151818401526020810190506118cf565b838111156118f9576000848401525b50505050565b6000601f19601f8301169050919050565b600061191b826118b0565b61192581856118bb565b93506119358185602086016118cc565b61193e816118ff565b840191505092915050565b600060208201905081810360008301526119638184611910565b905092915050565b6000819050919050565b61197e8161196b565b811461198957600080fd5b50565b60008135905061199b81611975565b92915050565b6000602082840312156119b7576119b66117eb565b5b60006119c58482850161198c565b91505092915050565b600073ffffffffffffffffffffffffffffffffffffffff82169050919050565b60006119f9826119ce565b9050919050565b611a09816119ee565b82525050565b6000602082019050611a246000830184611a00565b92915050565b611a33816119ee565b8114611a3e57600080fd5b50565b600081359050611a5081611a2a565b92915050565b60008060408385031215611a6d57611a6c6117eb565b5b6000611a7b85828601611a41565b9250506020611a8c8582860161198c565b9150509250929050565b600080600060608486031215611aaf57611aae6117eb565b5b6000611abd86828701611a41565b9350506020611ace86828701611a41565b9250506040611adf8682870161198c565b9150509250925092565b600060208284031215611aff57611afe6117eb565b5b6000611b0d84828501611a41565b91505092915050565b611b1f8161196b565b82525050565b6000602082019050611b3a6000830184611b16565b92915050565b611b498161187a565b8114611b5457600080fd5b50565b600081359050611b6681611b40565b92915050565b60008060408385031215611b8357611b826117eb565b5b6000611b9185828601611a41565b9250506020611ba285828601611b57565b9150509250929050565b600080fd5b600080fd5b7f4e487b7100000000000000000000000000000000000000000000000000000000600052604160045260246000fd5b611bee826118ff565b810181811067ffffffffffffffff82111715611c0d57611c0c611bb6565b5b80604052505050565b6000611c206117e1565b9050611c2c8282611be5565b919050565b600067ffffffffffffffff821115611c4c57611c4b611bb6565b5b611c55826118ff565b9050602081019050919050565b82818337600083830152505050565b6000611c84611c7f84611c31565b611c16565b905082815260208101848484011115611ca057611c9f611bb1565b5b611cab848285611c62565b509392505050565b600082601f830112611cc857611cc7611bac565b5b8135611cd8848260208601611c71565b91505092915050565b60008060008060808587031215611cfb57611cfa6117eb565b5b6000611d0987828801611a41565b9450506020611d1a87828801611a41565b9350506040611d2b8782880161198c565b925050606085013567ffffffffffffffff811115611d4c57611d4b6117f0565b5b611d5887828801611cb3565b91505092959194509250565b600067ffffffffffffffff821115611d7f57611d7e611bb6565b5b611d88826118ff565b9050602081019050919050565b6000611da8611da384611d64565b611c16565b905082815260208101848484011115611dc457611dc3611bb1565b5b611dcf848285611c62565b509392505050565b600082601f830112611dec57611deb611bac565b5b8135611dfc848260208601611d95565b91505092915050565b600060208284031215611e1b57611e1a6117eb565b5b600082013567ffffffffffffffff811115611e3957611e386117f0565b5b611e4584828501611dd7565b91505092915050565b60008060408385031215611e6557611e646117eb565b5b6000611e7385828601611a41565b9250506020611e8485828601611a41565b9150509250929050565b7f4e487b7100000000000000000000000000000000000000000000000000000000600052602260045260246000fd5b60006002820490506001821680611ed557607f821691505b60208210811415611ee957611ee8611e8e565b5b50919050565b7f4552433732313a20617070726f76656420717565727920666f72206e6f6e657860008201527f697374656e7420746f6b656e0000000000000000000000000000000000000000602082015250565b6000611f4b602c836118bb565b9150611f5682611eef565b604082019050919050565b60006020820190508181036000830152611f7a81611f3e565b9050919050565b7f4552433732313a20617070726f76616c20746f2063757272656e74206f776e6560008201527f7200000000000000000000000000000000000000000000000000000000000000602082015250565b6000611fdd6021836118bb565b9150611fe882611f81565b604082019050919050565b6000602082019050818103600083015261200c81611fd0565b9050919050565b7f4552433732313a20617070726f76652063616c6c6572206973206e6f74206f7760008201527f6e6572206e6f7220617070726f76656420666f7220616c6c0000000000000000602082015250565b600061206f6038836118bb565b915061207a82612013565b604082019050919050565b6000602082019050818103600083015261209e81612062565b9050919050565b7f4552433732313a207472616e736665722063616c6c6572206973206e6f74206f60008201527f776e6572206e6f7220617070726f766564000000000000000000000000000000602082015250565b60006121016031836118bb565b915061210c826120a5565b604082019050919050565b60006020820190508181036000830152612130816120f4565b9050919050565b7f4552433732313a206f776e657220717565727920666f72206e6f6e657869737460008201527f656e7420746f6b656e0000000000000000000000000000000000000000000000602082015250565b60006121936029836118bb565b915061219e82612137565b604082019050919050565b600060208201905081810360008301526121c281612186565b9050919050565b7f4552433732313a2062616c616e636520717565727920666f7220746865207a6560008201527f726f206164647265737300000000000000000000000000000000000000000000602082015250565b6000612225602a836118bb565b9150612230826121c9565b604082019050919050565b6000602082019050818103600083015261225481612218565b9050919050565b7f4552433732313a20617070726f766520746f2063616c6c657200000000000000600082015250565b60006122916019836118bb565b915061229c8261225b565b602082019050919050565b600060208201905081810360008301526122c081612284565b9050919050565b7f4552433732314d657461646174613a2055524920717565727920666f72206e6f60008201527f6e6578697374656e7420746f6b656e0000000000000000000000000000000000602082015250565b6000612323602f836118bb565b915061232e826122c7565b604082019050919050565b6000602082019050818103600083015261235281612316565b9050919050565b600081905092915050565b600061236f826118b0565b6123798185612359565b93506123898185602086016118cc565b80840191505092915050565b60006123a18285612364565b91506123ad8284612364565b91508190509392505050565b7f4e487b7100000000000000000000000000000000000000000000000000000000600052601160045260246000fd5b60006123f38261196b565b91506123fe8361196b565b925082821015612411576124106123b9565b5b828203905092915050565b60006124288284612364565b915081905092915050565b7f4552433732313a206f70657261746f7220717565727920666f72206e6f6e657860008201527f697374656e7420746f6b656e0000000000000000000000000000000000000000602082015250565b600061248f602c836118bb565b915061249a82612433565b604082019050919050565b600060208201905081810360008301526124be81612482565b9050919050565b7f4552433732313a207472616e73666572206f6620746f6b656e2074686174206960008201527f73206e6f74206f776e0000000000000000000000000000000000000000000000602082015250565b60006125216029836118bb565b915061252c826124c5565b604082019050919050565b6000602082019050818103600083015261255081612514565b9050919050565b7f4552433732313a207472616e7366657220746f20746865207a65726f2061646460008201527f7265737300000000000000000000000000000000000000000000000000000000602082015250565b60006125b36024836118bb565b91506125be82612557565b604082019050919050565b600060208201905081810360008301526125e2816125a6565b9050919050565b60006125f48261196b565b91506125ff8361196b565b9250827fffffffffffffffffffffffffffffffffffffffffffffffffffffffffffffffff03821115612634576126336123b9565b5b828201905092915050565b7f4552433732313a207472616e7366657220746f206e6f6e20455243373231526560008201527f63656976657220696d706c656d656e7465720000000000000000000000000000602082015250565b600061269b6032836118bb565b91506126a68261263f565b604082019050919050565b600060208201905081810360008301526126ca8161268e565b9050919050565b60006126dc8261196b565b91507fffffffffffffffffffffffffffffffffffffffffffffffffffffffffffffffff82141561270f5761270e6123b9565b5b600182019050919050565b7f4e487b7100000000000000000000000000000000000000000000000000000000600052601260045260246000fd5b60006127548261196b565b915061275f8361196b565b92508261276f5761276e61271a565b5b828204905092915050565b60006127858261196b565b91506127908361196b565b9250826127a05761279f61271a565b5b828206905092915050565b7f4e487b7100000000000000000000000000000000000000000000000000000000600052603260045260246000fd5b7f4552433732313a206d696e7420746f20746865207a65726f2061646472657373600082015250565b60006128106020836118bb565b915061281b826127da565b602082019050919050565b6000602082019050818103600083015261283f81612803565b9050919050565b7f4552433732313a20746f6b656e20616c7265616479206d696e74656400000000600082015250565b600061287c601c836118bb565b915061288782612846565b602082019050919050565b600060208201905081810360008301526128ab8161286f565b9050919050565b600081519050919050565b600082825260208201905092915050565b60006128d9826128b2565b6128e381856128bd565b93506128f38185602086016118cc565b6128fc816118ff565b840191505092915050565b600060808201905061291c6000830187611a00565b6129296020830186611a00565b6129366040830185611b16565b818103606083015261294881846128ce565b905095945050505050565b60008151905061296281611821565b92915050565b60006020828403121561297e5761297d6117eb565b5b600061298c84828501612953565b9150509291505056fea2646970667358221220502d6d3ceaf95004c0eaf5d848653dcd2bb1f7d9a9a986543311fee84833fe7c64736f6c63430008090033",
  "immutableReferences": {},
  "source": "// SPDX-License-Identifier: MIT\npragma solidity >=0.7.6;\n\nimport \"@openzeppelin/contracts/token/ERC721/ERC721.sol\";\n\ncontract Color is ERC721 {\n  string[] public colors;\n  mapping(string => bool) _colorExists;\n\n  constructor() ERC721(\"Color\", \"CLR\") {}\n\n  function mint(string memory _color) public {\n    // Require unique color\n    colors.push(_color);\n    uint256 _id = colors.length - 1;\n    _mint(msg.sender, _id);\n    _colorExists[_color] = true;\n  }\n}\n",
  "sourcePath": "/home/eduwr/Documents/eduardo/nft-color-project/src/contracts/Color.sol",
  "compiler": {
    "name": "solc",
    "version": "0.8.9+commit.e5eed63a.Emscripten.clang"
  },
  "schemaVersion": "3.4.3",
  "updatedAt": "2021-10-05T22:27:10.855Z",
  "networkType": "ethereum",
  "devdoc": {
    "kind": "dev",
    "methods": {
      "approve(address,uint256)": {
        "details": "See {IERC721-approve}."
      },
      "balanceOf(address)": {
        "details": "See {IERC721-balanceOf}."
      },
      "getApproved(uint256)": {
        "details": "See {IERC721-getApproved}."
      },
      "isApprovedForAll(address,address)": {
        "details": "See {IERC721-isApprovedForAll}."
      },
      "name()": {
        "details": "See {IERC721Metadata-name}."
      },
      "ownerOf(uint256)": {
        "details": "See {IERC721-ownerOf}."
      },
      "safeTransferFrom(address,address,uint256)": {
        "details": "See {IERC721-safeTransferFrom}."
      },
      "safeTransferFrom(address,address,uint256,bytes)": {
        "details": "See {IERC721-safeTransferFrom}."
      },
      "setApprovalForAll(address,bool)": {
        "details": "See {IERC721-setApprovalForAll}."
      },
      "supportsInterface(bytes4)": {
        "details": "See {IERC165-supportsInterface}."
      },
      "symbol()": {
        "details": "See {IERC721Metadata-symbol}."
      },
      "tokenURI(uint256)": {
        "details": "See {IERC721Metadata-tokenURI}."
      },
      "transferFrom(address,address,uint256)": {
        "details": "See {IERC721-transferFrom}."
      }
    },
    "version": 1
  },
  "userdoc": {
    "kind": "user",
    "methods": {},
    "version": 1
  }
}